:020000040000FA
:060000000A128A11FC2F18
:100DEC000730831603139C00F8308600831203131C
:100DFC008601831603138801831203138601FF30C7
:100E0C0088000A128A1113270A128A1183120313FB
:100E1C008800072F0A128A11002883120313061464
:100E2C00861D192F1A2F252F1A30F100F830F000DB
:100E3C00F00B1E2FF10B1E2F0000F201F20A831291
:100E4C000313061E2A2F2B2F382F1A30F100F830DF
:100E5C00F000F00B2F2FF10B2F2F00000430F000BF
:100E6C007008F20083120313861E3D2F3E2F4B2F6A
:100E7C001A30F100F830F000F00B422FF10B422F3A
:100E8C0000000730F0007008F20083120313061FF5
:100E9C00502F512F5E2F1A30F100F830F000F00B6C
:100EAC00552FF10B552F00000F30F0007008F20099
:100EBC008312031306108614861D652F662F732F5D
:100ECC001A30F100F830F000F00B6A2FF10B6A2F9A
:100EDC0000000230F0007008F20083120313061EAB
:100EEC00782F792F862F1A30F100F830F000F00BA4
:100EFC007D2FF10B7D2F00000530F0007008F20003
:100F0C0083120313861E8B2F8C2F992F1A30F1000E
:100F1C00F830F000F00B902FF10B902F0000083000
:100F2C00F0007008F20083120313061F9E2F9F2FF0
:100F3C00A92F1A30F100F830F000F00BA32FF10BB1
:100F4C00A32F0000F2018312031386100615861DD1
:100F5C00B02FB12FBE2F1A30F100F830F000F00B8B
:100F6C00B52FF10BB52F00000330F0007008F20024
:100F7C0083120313061EC32FC42FD12F1A30F10076
:100F8C00F830F000F00BC82FF10BC82F0000063022
:100F9C00F0007008F20083120313861ED62FD72F91
:100FAC00E42F1A30F100F830F000F00BDB2FF10BCE
:100FBC00DB2F00000930F0007008F20083120313DD
:100FCC00061FE92FEA2FF72F1A30F100F830F00046
:100FDC00F00BEE2FF10BEE2F0000FF30F00070083D
:100FEC00F2008312031306117208080083010A121F
:040FFC008A11F62E32
:02400E00393F38
:00000001FF
